{
  "contractName": "DigitalArt",
  "abi": [
    {
      "inputs": [
        {
          "internalType": "address",
          "name": "_parentContract",
          "type": "address"
        },
        {
          "internalType": "bytes32",
          "name": "_daHash",
          "type": "bytes32"
        }
      ],
      "stateMutability": "nonpayable",
      "type": "constructor"
    },
    {
      "anonymous": false,
      "inputs": [
        {
          "indexed": false,
          "internalType": "bytes32",
          "name": "",
          "type": "bytes32"
        },
        {
          "indexed": false,
          "internalType": "enum RecordLabel.DigitalArtStatus",
          "name": "",
          "type": "uint8"
        }
      ],
      "name": "DigitalArtStatusUpdate",
      "type": "event"
    },
    {
      "anonymous": false,
      "inputs": [
        {
          "indexed": true,
          "internalType": "address",
          "name": "previousOwner",
          "type": "address"
        },
        {
          "indexed": true,
          "internalType": "address",
          "name": "newOwner",
          "type": "address"
        }
      ],
      "name": "OwnershipTransferred",
      "type": "event"
    },
    {
      "inputs": [],
      "name": "daHash",
      "outputs": [
        {
          "internalType": "bytes32",
          "name": "",
          "type": "bytes32"
        }
      ],
      "stateMutability": "view",
      "type": "function"
    },
    {
      "inputs": [],
      "name": "isOwner",
      "outputs": [
        {
          "internalType": "bool",
          "name": "",
          "type": "bool"
        }
      ],
      "stateMutability": "view",
      "type": "function"
    },
    {
      "inputs": [],
      "name": "owner",
      "outputs": [
        {
          "internalType": "address",
          "name": "",
          "type": "address"
        }
      ],
      "stateMutability": "view",
      "type": "function"
    },
    {
      "inputs": [],
      "name": "status",
      "outputs": [
        {
          "internalType": "enum RecordLabel.DigitalArtStatus",
          "name": "",
          "type": "uint8"
        }
      ],
      "stateMutability": "view",
      "type": "function"
    },
    {
      "inputs": [
        {
          "internalType": "address",
          "name": "newOwner",
          "type": "address"
        }
      ],
      "name": "transferOwnership",
      "outputs": [],
      "stateMutability": "nonpayable",
      "type": "function"
    },
    {
      "inputs": [
        {
          "internalType": "enum RecordLabel.DigitalArtStatus",
          "name": "_status",
          "type": "uint8"
        }
      ],
      "name": "updateStatus",
      "outputs": [],
      "stateMutability": "nonpayable",
      "type": "function"
    },
    {
      "inputs": [],
      "name": "withdrawFunds",
      "outputs": [],
      "stateMutability": "nonpayable",
      "type": "function"
    },
    {
      "inputs": [],
      "name": "gratuity",
      "outputs": [],
      "stateMutability": "payable",
      "type": "function"
    }
  ],
  "bytecode": "0x608060405234801561001057600080fd5b5060405162000d1f38038062000d1f8339818101604052810190610034919061013e565b336000806101000a81548173ffffffffffffffffffffffffffffffffffffffff021916908373ffffffffffffffffffffffffffffffffffffffff16021790555081600260006101000a81548173ffffffffffffffffffffffffffffffffffffffff021916908373ffffffffffffffffffffffffffffffffffffffff160217905550806001819055506000600260146101000a81548160ff02191690836002811115610108577f4e487b7100000000000000000000000000000000000000000000000000000000600052602160045260246000fd5b021790555050506101e4565b600081519050610123816101b6565b92915050565b600081519050610138816101cd565b92915050565b6000806040838503121561015157600080fd5b600061015f85828601610114565b925050602061017085828601610129565b9150509250929050565b600061018582610196565b9050919050565b6000819050919050565b600073ffffffffffffffffffffffffffffffffffffffff82169050919050565b6101bf8161017a565b81146101ca57600080fd5b50565b6101d68161018c565b81146101e157600080fd5b50565b610b2b80620001f46000396000f3fe60806040526004361061007b5760003560e01c80638f32d59b1161004e5780638f32d59b14610116578063c3780b7714610141578063e99d57801461014b578063f2fde38b146101765761007b565b80630b3af7f914610080578063200d2ed2146100a957806324600fc3146100d45780638da5cb5b146100eb575b600080fd5b34801561008c57600080fd5b506100a760048036038101906100a29190610665565b61019f565b005b3480156100b557600080fd5b506100be6102bd565b6040516100cb919061082b565b60405180910390f35b3480156100e057600080fd5b506100e96102d0565b005b3480156100f757600080fd5b506101006103d3565b60405161010d91906107b1565b60405180910390f35b34801561012257600080fd5b5061012b6103fc565b60405161013891906107cc565b60405180910390f35b610149610453565b005b34801561015757600080fd5b50610160610498565b60405161016d91906107e7565b60405180910390f35b34801561018257600080fd5b5061019d6004803603810190610198919061063c565b61049e565b005b3373ffffffffffffffffffffffffffffffffffffffff16600260009054906101000a900473ffffffffffffffffffffffffffffffffffffffff1673ffffffffffffffffffffffffffffffffffffffff161461022f576040517f08c379a000000000000000000000000000000000000000000000000000000000815260040161022690610866565b60405180910390fd5b7fd223e7f50c4f077d203456150fae15aacd90f6a4cd62ef5d7efb5b45179950e360015482604051610262929190610802565b60405180910390a180600260146101000a81548160ff021916908360028111156102b5577f4e487b7100000000000000000000000000000000000000000000000000000000600052602160045260246000fd5b021790555050565b600260149054906101000a900460ff1681565b6102d86103fc565b610317576040517f08c379a000000000000000000000000000000000000000000000000000000000815260040161030e90610886565b60405180910390fd5b600047905060006103266103d3565b73ffffffffffffffffffffffffffffffffffffffff16826040516103499061079c565b60006040518083038185875af1925050503d8060008114610386576040519150601f19603f3d011682016040523d82523d6000602084013e61038b565b606091505b50509050806103cf576040517f08c379a00000000000000000000000000000000000000000000000000000000081526004016103c6906108c6565b60405180910390fd5b5050565b60008060009054906101000a900473ffffffffffffffffffffffffffffffffffffffff16905090565b60008060009054906101000a900473ffffffffffffffffffffffffffffffffffffffff1673ffffffffffffffffffffffffffffffffffffffff163373ffffffffffffffffffffffffffffffffffffffff1614905090565b60003411610496576040517f08c379a000000000000000000000000000000000000000000000000000000000815260040161048d906108a6565b60405180910390fd5b565b60015481565b6104a66103fc565b6104e5576040517f08c379a00000000000000000000000000000000000000000000000000000000081526004016104dc90610886565b60405180910390fd5b600073ffffffffffffffffffffffffffffffffffffffff168173ffffffffffffffffffffffffffffffffffffffff161415610555576040517f08c379a000000000000000000000000000000000000000000000000000000000815260040161054c90610846565b60405180910390fd5b8073ffffffffffffffffffffffffffffffffffffffff1660008054906101000a900473ffffffffffffffffffffffffffffffffffffffff1673ffffffffffffffffffffffffffffffffffffffff167f8be0079c531659141344cd1fd0a4f28419497f9722a3daafe3b4186f6b6457e060405160405180910390a3806000806101000a81548173ffffffffffffffffffffffffffffffffffffffff021916908373ffffffffffffffffffffffffffffffffffffffff16021790555050565b60008135905061062181610ace565b92915050565b60008135905061063681610ae5565b92915050565b60006020828403121561064e57600080fd5b600061065c84828501610612565b91505092915050565b60006020828403121561067757600080fd5b600061068584828501610627565b91505092915050565b61069781610902565b82525050565b6106a681610914565b82525050565b6106b581610920565b82525050565b6106c48161095d565b82525050565b60006106d76026836108f1565b91506106e28261099e565b604082019050919050565b60006106fa6022836108f1565b9150610705826109ed565b604082019050919050565b600061071d6020836108f1565b915061072882610a3c565b602082019050919050565b6000610740601d836108f1565b915061074b82610a65565b602082019050919050565b60006107636018836108f1565b915061076e82610a8e565b602082019050919050565b60006107866000836108e6565b915061079182610ab7565b600082019050919050565b60006107a782610779565b9150819050919050565b60006020820190506107c6600083018461068e565b92915050565b60006020820190506107e1600083018461069d565b92915050565b60006020820190506107fc60008301846106ac565b92915050565b600060408201905061081760008301856106ac565b61082460208301846106bb565b9392505050565b600060208201905061084060008301846106bb565b92915050565b6000602082019050818103600083015261085f816106ca565b9050919050565b6000602082019050818103600083015261087f816106ed565b9050919050565b6000602082019050818103600083015261089f81610710565b9050919050565b600060208201905081810360008301526108bf81610733565b9050919050565b600060208201905081810360008301526108df81610756565b9050919050565b600081905092915050565b600082825260208201905092915050565b600061090d8261093d565b9050919050565b60008115159050919050565b6000819050919050565b600081905061093882610aba565b919050565b600073ffffffffffffffffffffffffffffffffffffffff82169050919050565b60006109688261092a565b9050919050565b7f4e487b7100000000000000000000000000000000000000000000000000000000600052602160045260246000fd5b7f4f776e61626c653a206e6577206f776e657220697320746865207a65726f206160008201527f6464726573730000000000000000000000000000000000000000000000000000602082015250565b7f43616c6c6572206e6565647320746f20626520706172656e7420636f6e74726160008201527f6374000000000000000000000000000000000000000000000000000000000000602082015250565b7f4f776e61626c653a2063616c6c6572206973206e6f7420746865206f776e6572600082015250565b7f54697020616d6f756e742068617320746f20626520706f736974697665000000600082015250565b7f4661696c656420746f2077697468647261772045746865720000000000000000600082015250565b50565b60038110610acb57610aca61096f565b5b50565b610ad781610902565b8114610ae257600080fd5b50565b60038110610af257600080fd5b5056fea2646970667358221220b9d702a8c42e133f54db7b9732cf8571f3087f8598f1383eaaaa7154411151a564736f6c63430008030033",
  "immutableReferences": {},
  "source": "// SPDX-License-Identifier: MIT\npragma solidity ^0.8.3;\n\nimport \"./RecordLabel.sol\";\nimport \"./Ownable.sol\";\n\ncontract DigitalArt is Ownable {\n\tbytes32 public daHash ;\n    address private parentContract;\n\tRecordLabel.DigitalArtStatus public status;\n\n    event DigitalArtStatusUpdate(bytes32, RecordLabel.DigitalArtStatus);\n\n    /**\n     * @dev Create a digital art record\n     */\n    constructor(address _parentContract, bytes32 _daHash) {\n        parentContract = _parentContract;\n\t\tdaHash = _daHash;\n\t\tstatus = RecordLabel.DigitalArtStatus.Applied;\n    }\n\n    /**\n     * @dev Only parent contract is allowed to this operation\n     */\n    modifier onlyParentContract() {\n        require(address(parentContract) == msg.sender, \"Caller needs to be parent contract\");\n        _;\n    }\n\n    /**\n     * @dev Updates the status of the digital art. Only allowed by the parent contract\n     */\n\tfunction updateStatus(RecordLabel.DigitalArtStatus _status) public onlyParentContract {\n\t\temit DigitalArtStatusUpdate(daHash, _status);\n\t\tstatus = _status;\n\t}\n\t\n    /**\n     * @dev Allows the user of the digital art to withdraw their funds\n     */\n    function withdrawFunds() public onlyOwner {\n        uint amount = address(this).balance;\n        (bool success,) = owner().call{value: amount}(\"\");\n        require(success, \"Failed to withdraw Ether\");\n    }\n\n    /**\n     * @dev Accepts a tip\n     */\n    function gratuity() public payable {\n        require(msg.value > 0, \"Tip amount has to be positive\");\n    }\n}",
  "sourcePath": "D:\\School\\2010\\DigitalArt\\contracts\\DigitalArt.sol",
  "compiler": {
    "name": "solc",
    "version": "0.8.3+commit.8d00100c.Emscripten.clang"
  },
  "schemaVersion": "3.3.4",
  "updatedAt": "2021-04-07T00:24:28.762Z",
  "devdoc": {
    "kind": "dev",
    "methods": {
      "constructor": {
        "details": "Create a digital art record"
      },
      "gratuity()": {
        "details": "Accepts a tip"
      },
      "isOwner()": {
        "details": "Returns true if the caller is the current owner."
      },
      "owner()": {
        "details": "Returns the address of the current owner."
      },
      "transferOwnership(address)": {
        "details": "Transfers ownership of the contract to a new account (`newOwner`). Can only be called by the current owner."
      },
      "updateStatus(uint8)": {
        "details": "Updates the status of the digital art. Only allowed by the parent contract"
      },
      "withdrawFunds()": {
        "details": "Allows the user of the digital art to withdraw their funds"
      }
    },
    "version": 1
  },
  "userdoc": {
    "kind": "user",
    "methods": {},
    "version": 1
  }
}