{
  "contractName": "RecordLabel",
  "abi": [
    {
      "anonymous": false,
      "inputs": [
        {
          "indexed": true,
          "internalType": "address",
          "name": "previousOwner",
          "type": "address"
        },
        {
          "indexed": true,
          "internalType": "address",
          "name": "newOwner",
          "type": "address"
        }
      ],
      "name": "OwnershipTransferred",
      "type": "event"
    },
    {
      "inputs": [
        {
          "internalType": "bytes32",
          "name": "",
          "type": "bytes32"
        }
      ],
      "name": "digitalArts",
      "outputs": [
        {
          "internalType": "contract DigitalArt",
          "name": "digitalArt",
          "type": "address"
        },
        {
          "internalType": "bool",
          "name": "exists",
          "type": "bool"
        }
      ],
      "stateMutability": "view",
      "type": "function"
    },
    {
      "inputs": [],
      "name": "isOwner",
      "outputs": [
        {
          "internalType": "bool",
          "name": "",
          "type": "bool"
        }
      ],
      "stateMutability": "view",
      "type": "function"
    },
    {
      "inputs": [],
      "name": "owner",
      "outputs": [
        {
          "internalType": "address",
          "name": "",
          "type": "address"
        }
      ],
      "stateMutability": "view",
      "type": "function"
    },
    {
      "inputs": [
        {
          "internalType": "address",
          "name": "newOwner",
          "type": "address"
        }
      ],
      "name": "transferOwnership",
      "outputs": [],
      "stateMutability": "nonpayable",
      "type": "function"
    },
    {
      "inputs": [
        {
          "internalType": "bytes32",
          "name": "_dhash",
          "type": "bytes32"
        }
      ],
      "name": "createDigitalArt",
      "outputs": [],
      "stateMutability": "payable",
      "type": "function"
    },
    {
      "inputs": [
        {
          "internalType": "bytes32",
          "name": "_dhash",
          "type": "bytes32"
        }
      ],
      "name": "searchDigitalArt",
      "outputs": [
        {
          "internalType": "contract DigitalArt",
          "name": "",
          "type": "address"
        }
      ],
      "stateMutability": "view",
      "type": "function"
    },
    {
      "inputs": [
        {
          "internalType": "bytes32",
          "name": "_dhash",
          "type": "bytes32"
        }
      ],
      "name": "publishDigitalArt",
      "outputs": [],
      "stateMutability": "nonpayable",
      "type": "function"
    },
    {
      "inputs": [
        {
          "internalType": "bytes32",
          "name": "_dhash",
          "type": "bytes32"
        }
      ],
      "name": "cancelDigitalArt",
      "outputs": [],
      "stateMutability": "nonpayable",
      "type": "function"
    },
    {
      "inputs": [],
      "name": "withdrawAllFunds",
      "outputs": [],
      "stateMutability": "nonpayable",
      "type": "function"
    }
  ],
  "bytecode": "0x608060405234801561001057600080fd5b50336000806101000a81548173ffffffffffffffffffffffffffffffffffffffff021916908373ffffffffffffffffffffffffffffffffffffffff160217905550612027806100606000396000f3fe608060405260043610620000925760003560e01c806380fefa27116200006157806380fefa2714620001445780638da5cb5b14620001725780638f32d59b14620001a2578063a1f82fc614620001d2578063f2fde38b14620002165762000092565b80631b10b0001462000097578063307f7bda14620000dc57806349649fbf14620000fc5780637e94a3e31462000116575b600080fd5b348015620000a457600080fd5b50620000c36004803603810190620000bd919062000be9565b62000244565b604051620000d392919062000e64565b60405180910390f35b620000fa6004803603810190620000f4919062000be9565b62000295565b005b3480156200010957600080fd5b5062000114620005e4565b005b3480156200012357600080fd5b506200014260048036038101906200013c919062000be9565b620006f5565b005b3480156200015157600080fd5b506200017060048036038101906200016a919062000be9565b620007ea565b005b3480156200017f57600080fd5b506200018a620008df565b60405162000199919062000de0565b60405180910390f35b348015620001af57600080fd5b50620001ba62000908565b604051620001c9919062000e2a565b60405180910390f35b348015620001df57600080fd5b50620001fe6004803603810190620001f8919062000be9565b6200095f565b6040516200020d919062000e47565b60405180910390f35b3480156200022357600080fd5b506200024260048036038101906200023c919062000bbd565b62000a05565b005b60016020528060005260406000206000915090508060000160009054906101000a900473ffffffffffffffffffffffffffffffffffffffff16908060000160149054906101000a900460ff16905082565b60003411620002db576040517f08c379a0000000000000000000000000000000000000000000000000000000008152600401620002d29062000f7a565b60405180910390fd5b3373ffffffffffffffffffffffffffffffffffffffff16600073ffffffffffffffffffffffffffffffffffffffff1614156200034e576040517f08c379a0000000000000000000000000000000000000000000000000000000008152600401620003459062000f14565b60405180910390fd5b3373ffffffffffffffffffffffffffffffffffffffff166200036f620008df565b73ffffffffffffffffffffffffffffffffffffffff161415620003c9576040517f08c379a0000000000000000000000000000000000000000000000000000000008152600401620003c09062000f9c565b60405180910390fd5b600015156001600083815260200190815260200160002060000160149054906101000a900460ff1615151462000436576040517f08c379a00000000000000000000000000000000000000000000000000000000081526004016200042d9062000eae565b60405180910390fd5b600062000442620008df565b82604051620004519062000b81565b6200045e92919062000dfd565b604051809103906000f0801580156200047b573d6000803e3d6000fd5b5090508073ffffffffffffffffffffffffffffffffffffffff16630b3af7f960006040518263ffffffff1660e01b8152600401620004ba919062000e91565b600060405180830381600087803b158015620004d557600080fd5b505af1158015620004ea573d6000803e3d6000fd5b505050508073ffffffffffffffffffffffffffffffffffffffff1663f2fde38b336040518263ffffffff1660e01b815260040162000529919062000de0565b600060405180830381600087803b1580156200054457600080fd5b505af115801562000559573d6000803e3d6000fd5b50505050806001600084815260200190815260200160002060000160006101000a81548173ffffffffffffffffffffffffffffffffffffffff021916908373ffffffffffffffffffffffffffffffffffffffff160217905550600180600084815260200190815260200160002060000160146101000a81548160ff0219169083151502179055505050565b620005ee62000908565b62000630576040517f08c379a0000000000000000000000000000000000000000000000000000000008152600401620006279062000f36565b60405180910390fd5b6000479050600062000641620008df565b73ffffffffffffffffffffffffffffffffffffffff1682604051620006669062000dc9565b60006040518083038185875af1925050503d8060008114620006a5576040519150601f19603f3d011682016040523d82523d6000602084013e620006aa565b606091505b5050905080620006f1576040517f08c379a0000000000000000000000000000000000000000000000000000000008152600401620006e89062000f58565b60405180910390fd5b5050565b620006ff62000908565b62000741576040517f08c379a0000000000000000000000000000000000000000000000000000000008152600401620007389062000f36565b60405180910390fd5b6001600082815260200190815260200160002060000160009054906101000a900473ffffffffffffffffffffffffffffffffffffffff1673ffffffffffffffffffffffffffffffffffffffff16630b3af7f960026040518263ffffffff1660e01b8152600401620007b3919062000e91565b600060405180830381600087803b158015620007ce57600080fd5b505af1158015620007e3573d6000803e3d6000fd5b5050505050565b620007f462000908565b62000836576040517f08c379a00000000000000000000000000000000000000000000000000000000081526004016200082d9062000f36565b60405180910390fd5b6001600082815260200190815260200160002060000160009054906101000a900473ffffffffffffffffffffffffffffffffffffffff1673ffffffffffffffffffffffffffffffffffffffff16630b3af7f960016040518263ffffffff1660e01b8152600401620008a8919062000e91565b600060405180830381600087803b158015620008c357600080fd5b505af1158015620008d8573d6000803e3d6000fd5b5050505050565b60008060009054906101000a900473ffffffffffffffffffffffffffffffffffffffff16905090565b60008060009054906101000a900473ffffffffffffffffffffffffffffffffffffffff1673ffffffffffffffffffffffffffffffffffffffff163373ffffffffffffffffffffffffffffffffffffffff1614905090565b60006001600083815260200190815260200160002060000160149054906101000a900460ff16620009c7576040517f08c379a0000000000000000000000000000000000000000000000000000000008152600401620009be9062000ed0565b60405180910390fd5b6001600083815260200190815260200160002060000160009054906101000a900473ffffffffffffffffffffffffffffffffffffffff169050919050565b62000a0f62000908565b62000a51576040517f08c379a000000000000000000000000000000000000000000000000000000000815260040162000a489062000f36565b60405180910390fd5b600073ffffffffffffffffffffffffffffffffffffffff168173ffffffffffffffffffffffffffffffffffffffff16141562000ac4576040517f08c379a000000000000000000000000000000000000000000000000000000000815260040162000abb9062000ef2565b60405180910390fd5b8073ffffffffffffffffffffffffffffffffffffffff1660008054906101000a900473ffffffffffffffffffffffffffffffffffffffff1673ffffffffffffffffffffffffffffffffffffffff167f8be0079c531659141344cd1fd0a4f28419497f9722a3daafe3b4186f6b6457e060405160405180910390a3806000806101000a81548173ffffffffffffffffffffffffffffffffffffffff021916908373ffffffffffffffffffffffffffffffffffffffff16021790555050565b610d1f80620012d383390190565b60008135905062000ba0816200129e565b92915050565b60008135905062000bb781620012b8565b92915050565b60006020828403121562000bd057600080fd5b600062000be08482850162000b8f565b91505092915050565b60006020828403121562000bfc57600080fd5b600062000c0c8482850162000ba6565b91505092915050565b62000c208162000fda565b82525050565b62000c318162000fee565b82525050565b62000c428162000ffa565b82525050565b62000c538162001039565b82525050565b62000c648162001061565b82525050565b600062000c79602c8362000fc9565b915062000c8682620010a4565b604082019050919050565b600062000ca0601b8362000fc9565b915062000cad82620010f3565b602082019050919050565b600062000cc760268362000fc9565b915062000cd4826200111c565b604082019050919050565b600062000cee601d8362000fc9565b915062000cfb826200116b565b602082019050919050565b600062000d1560208362000fc9565b915062000d228262001194565b602082019050919050565b600062000d3c60188362000fc9565b915062000d4982620011bd565b602082019050919050565b600062000d6360228362000fc9565b915062000d7082620011e6565b604082019050919050565b600062000d8a60258362000fc9565b915062000d978262001235565b604082019050919050565b600062000db160008362000fbe565b915062000dbe8262001284565b600082019050919050565b600062000dd68262000da2565b9150819050919050565b600060208201905062000df7600083018462000c15565b92915050565b600060408201905062000e14600083018562000c15565b62000e23602083018462000c37565b9392505050565b600060208201905062000e41600083018462000c26565b92915050565b600060208201905062000e5e600083018462000c48565b92915050565b600060408201905062000e7b600083018562000c48565b62000e8a602083018462000c26565b9392505050565b600060208201905062000ea8600083018462000c59565b92915050565b6000602082019050818103600083015262000ec98162000c6a565b9050919050565b6000602082019050818103600083015262000eeb8162000c91565b9050919050565b6000602082019050818103600083015262000f0d8162000cb8565b9050919050565b6000602082019050818103600083015262000f2f8162000cdf565b9050919050565b6000602082019050818103600083015262000f518162000d06565b9050919050565b6000602082019050818103600083015262000f738162000d2d565b9050919050565b6000602082019050818103600083015262000f958162000d54565b9050919050565b6000602082019050818103600083015262000fb78162000d7b565b9050919050565b600081905092915050565b600082825260208201905092915050565b600062000fe78262001019565b9050919050565b60008115159050919050565b6000819050919050565b6000819050620010148262001287565b919050565b600073ffffffffffffffffffffffffffffffffffffffff82169050919050565b600062001046826200104d565b9050919050565b60006200105a8262001019565b9050919050565b60006200106e8262001004565b9050919050565b7f4e487b7100000000000000000000000000000000000000000000000000000000600052602160045260246000fd5b7f43616e6e6f74206164642061206469676974616c20617274207468617420616c60008201527f7265616479206578697374730000000000000000000000000000000000000000602082015250565b7f4469676974616c2061727420646f6573206e6f74206578697374730000000000600082015250565b7f4f776e61626c653a206e6577206f776e657220697320746865207a65726f206160008201527f6464726573730000000000000000000000000000000000000000000000000000602082015250565b7f4f776e6572206d75737420626520612076616c69642061646472657373000000600082015250565b7f4f776e61626c653a2063616c6c6572206973206e6f7420746865206f776e6572600082015250565b7f4661696c656420746f2077697468647261772045746865720000000000000000600082015250565b7f43616e6e6f7420637265617465206469676974616c2061727420666f7220667260008201527f6565000000000000000000000000000000000000000000000000000000000000602082015250565b7f5265636f7264206c6162656c2063616e6e6f74206f776e20612064696769746160008201527f6c20617274000000000000000000000000000000000000000000000000000000602082015250565b50565b600381106200129b576200129a62001075565b5b50565b620012a98162000fda565b8114620012b557600080fd5b50565b620012c38162000ffa565b8114620012cf57600080fd5b5056fe608060405234801561001057600080fd5b5060405162000d1f38038062000d1f8339818101604052810190610034919061013e565b336000806101000a81548173ffffffffffffffffffffffffffffffffffffffff021916908373ffffffffffffffffffffffffffffffffffffffff16021790555081600260006101000a81548173ffffffffffffffffffffffffffffffffffffffff021916908373ffffffffffffffffffffffffffffffffffffffff160217905550806001819055506000600260146101000a81548160ff02191690836002811115610108577f4e487b7100000000000000000000000000000000000000000000000000000000600052602160045260246000fd5b021790555050506101e4565b600081519050610123816101b6565b92915050565b600081519050610138816101cd565b92915050565b6000806040838503121561015157600080fd5b600061015f85828601610114565b925050602061017085828601610129565b9150509250929050565b600061018582610196565b9050919050565b6000819050919050565b600073ffffffffffffffffffffffffffffffffffffffff82169050919050565b6101bf8161017a565b81146101ca57600080fd5b50565b6101d68161018c565b81146101e157600080fd5b50565b610b2b80620001f46000396000f3fe60806040526004361061007b5760003560e01c80638f32d59b1161004e5780638f32d59b14610116578063c3780b7714610141578063e99d57801461014b578063f2fde38b146101765761007b565b80630b3af7f914610080578063200d2ed2146100a957806324600fc3146100d45780638da5cb5b146100eb575b600080fd5b34801561008c57600080fd5b506100a760048036038101906100a29190610665565b61019f565b005b3480156100b557600080fd5b506100be6102bd565b6040516100cb919061082b565b60405180910390f35b3480156100e057600080fd5b506100e96102d0565b005b3480156100f757600080fd5b506101006103d3565b60405161010d91906107b1565b60405180910390f35b34801561012257600080fd5b5061012b6103fc565b60405161013891906107cc565b60405180910390f35b610149610453565b005b34801561015757600080fd5b50610160610498565b60405161016d91906107e7565b60405180910390f35b34801561018257600080fd5b5061019d6004803603810190610198919061063c565b61049e565b005b3373ffffffffffffffffffffffffffffffffffffffff16600260009054906101000a900473ffffffffffffffffffffffffffffffffffffffff1673ffffffffffffffffffffffffffffffffffffffff161461022f576040517f08c379a000000000000000000000000000000000000000000000000000000000815260040161022690610866565b60405180910390fd5b7fd223e7f50c4f077d203456150fae15aacd90f6a4cd62ef5d7efb5b45179950e360015482604051610262929190610802565b60405180910390a180600260146101000a81548160ff021916908360028111156102b5577f4e487b7100000000000000000000000000000000000000000000000000000000600052602160045260246000fd5b021790555050565b600260149054906101000a900460ff1681565b6102d86103fc565b610317576040517f08c379a000000000000000000000000000000000000000000000000000000000815260040161030e90610886565b60405180910390fd5b600047905060006103266103d3565b73ffffffffffffffffffffffffffffffffffffffff16826040516103499061079c565b60006040518083038185875af1925050503d8060008114610386576040519150601f19603f3d011682016040523d82523d6000602084013e61038b565b606091505b50509050806103cf576040517f08c379a00000000000000000000000000000000000000000000000000000000081526004016103c6906108c6565b60405180910390fd5b5050565b60008060009054906101000a900473ffffffffffffffffffffffffffffffffffffffff16905090565b60008060009054906101000a900473ffffffffffffffffffffffffffffffffffffffff1673ffffffffffffffffffffffffffffffffffffffff163373ffffffffffffffffffffffffffffffffffffffff1614905090565b60003411610496576040517f08c379a000000000000000000000000000000000000000000000000000000000815260040161048d906108a6565b60405180910390fd5b565b60015481565b6104a66103fc565b6104e5576040517f08c379a00000000000000000000000000000000000000000000000000000000081526004016104dc90610886565b60405180910390fd5b600073ffffffffffffffffffffffffffffffffffffffff168173ffffffffffffffffffffffffffffffffffffffff161415610555576040517f08c379a000000000000000000000000000000000000000000000000000000000815260040161054c90610846565b60405180910390fd5b8073ffffffffffffffffffffffffffffffffffffffff1660008054906101000a900473ffffffffffffffffffffffffffffffffffffffff1673ffffffffffffffffffffffffffffffffffffffff167f8be0079c531659141344cd1fd0a4f28419497f9722a3daafe3b4186f6b6457e060405160405180910390a3806000806101000a81548173ffffffffffffffffffffffffffffffffffffffff021916908373ffffffffffffffffffffffffffffffffffffffff16021790555050565b60008135905061062181610ace565b92915050565b60008135905061063681610ae5565b92915050565b60006020828403121561064e57600080fd5b600061065c84828501610612565b91505092915050565b60006020828403121561067757600080fd5b600061068584828501610627565b91505092915050565b61069781610902565b82525050565b6106a681610914565b82525050565b6106b581610920565b82525050565b6106c48161095d565b82525050565b60006106d76026836108f1565b91506106e28261099e565b604082019050919050565b60006106fa6022836108f1565b9150610705826109ed565b604082019050919050565b600061071d6020836108f1565b915061072882610a3c565b602082019050919050565b6000610740601d836108f1565b915061074b82610a65565b602082019050919050565b60006107636018836108f1565b915061076e82610a8e565b602082019050919050565b60006107866000836108e6565b915061079182610ab7565b600082019050919050565b60006107a782610779565b9150819050919050565b60006020820190506107c6600083018461068e565b92915050565b60006020820190506107e1600083018461069d565b92915050565b60006020820190506107fc60008301846106ac565b92915050565b600060408201905061081760008301856106ac565b61082460208301846106bb565b9392505050565b600060208201905061084060008301846106bb565b92915050565b6000602082019050818103600083015261085f816106ca565b9050919050565b6000602082019050818103600083015261087f816106ed565b9050919050565b6000602082019050818103600083015261089f81610710565b9050919050565b600060208201905081810360008301526108bf81610733565b9050919050565b600060208201905081810360008301526108df81610756565b9050919050565b600081905092915050565b600082825260208201905092915050565b600061090d8261093d565b9050919050565b60008115159050919050565b6000819050919050565b600081905061093882610aba565b919050565b600073ffffffffffffffffffffffffffffffffffffffff82169050919050565b60006109688261092a565b9050919050565b7f4e487b7100000000000000000000000000000000000000000000000000000000600052602160045260246000fd5b7f4f776e61626c653a206e6577206f776e657220697320746865207a65726f206160008201527f6464726573730000000000000000000000000000000000000000000000000000602082015250565b7f43616c6c6572206e6565647320746f20626520706172656e7420636f6e74726160008201527f6374000000000000000000000000000000000000000000000000000000000000602082015250565b7f4f776e61626c653a2063616c6c6572206973206e6f7420746865206f776e6572600082015250565b7f54697020616d6f756e742068617320746f20626520706f736974697665000000600082015250565b7f4661696c656420746f2077697468647261772045746865720000000000000000600082015250565b50565b60038110610acb57610aca61096f565b5b50565b610ad781610902565b8114610ae257600080fd5b50565b60038110610af257600080fd5b5056fea2646970667358221220b9d702a8c42e133f54db7b9732cf8571f3087f8598f1383eaaaa7154411151a564736f6c63430008030033a2646970667358221220f0d68519a473ab3168f424fea3b684213d1e140285dc1c5e090b8af7e5aa484764736f6c63430008030033",
  "immutableReferences": {},
  "source": "// SPDX-License-Identifier: MIT\npragma solidity ^0.8.3;\n\nimport \"./Ownable.sol\";\nimport \"./DigitalArt.sol\";\n \ncontract RecordLabel is Ownable {\n    enum DigitalArtStatus {Applied, Published, Cancelled}\n\n\n\n    struct S_DigitalArt{\n      DigitalArt digitalArt; \n      bool exists; // fill this out. \n    }\n    mapping(bytes32 => S_DigitalArt) public digitalArts;\n\n    //TODO: Make it accept ether. \n    function createDigitalArt(bytes32 _dhash) public payable {\n      require(msg.value > 0, \"Cannot create digital art for free\");\n      require(address(0) != msg.sender, \"Owner must be a valid address\");\t\n\t  \trequire(owner() != msg.sender, \"Record label cannot own a digital art\");\n      require(digitalArts[_dhash].exists == false, \"Cannot add a digital art that already exists\");\n\n      DigitalArt _digitalArt = new DigitalArt(address(owner()), _dhash);\n      _digitalArt.updateStatus(DigitalArtStatus.Applied);\n      _digitalArt.transferOwnership(msg.sender);\n      digitalArts[_dhash].digitalArt = _digitalArt;\n      digitalArts[_dhash].exists = true;    \n    }\n\n    function searchDigitalArt(bytes32 _dhash) public view returns(DigitalArt)  {    \n  \t\trequire(digitalArts[_dhash].exists, \"Digital art does not exists\");\n      return digitalArts[_dhash].digitalArt;\n     }\n\n    function publishDigitalArt(bytes32 _dhash) public onlyOwner {\n\t  \tdigitalArts[_dhash].digitalArt.updateStatus(DigitalArtStatus.Published);\n    }\n\n    function cancelDigitalArt(bytes32 _dhash) public onlyOwner {\n  \t\tdigitalArts[_dhash].digitalArt.updateStatus(DigitalArtStatus.Cancelled);\n    }\n\n    function withdrawAllFunds() public onlyOwner {\n        uint amount = address(this).balance;\n        (bool success,) = owner().call{value: amount}(\"\");\n        require(success, \"Failed to withdraw Ether\");\n    }\n}",
  "sourcePath": "D:\\School\\2010\\DigitalArt\\contracts\\RecordLabel.sol",
  "compiler": {
    "name": "solc",
    "version": "0.8.3+commit.8d00100c.Emscripten.clang"
  },
  "schemaVersion": "3.3.4",
  "updatedAt": "2021-04-07T00:24:28.822Z",
  "devdoc": {
    "kind": "dev",
    "methods": {
      "isOwner()": {
        "details": "Returns true if the caller is the current owner."
      },
      "owner()": {
        "details": "Returns the address of the current owner."
      },
      "transferOwnership(address)": {
        "details": "Transfers ownership of the contract to a new account (`newOwner`). Can only be called by the current owner."
      }
    },
    "version": 1
  },
  "userdoc": {
    "kind": "user",
    "methods": {},
    "version": 1
  }
}